:020000040800F2
:10000000D8C10120853A0008190500081B05000821
:100010001F05000823050008270500080000000050
:100020000000000000000000000000002B05000898
:100030002D050008000000002F050008310500080C
:100040009F3A00089F3A00089F3A00089F3A00082C
:100050009F3A00089F3A00089F3A00089F3A00081C
:100060009F3A00089F3A00089F3A00089F3A00080C
:100070009F3A00089F3A00089F3A00089F3A0008FC
:100080009F3A00089F3A00089F3A00089F3A0008EC
:100090009F3A00089F3A00089F3A00089F3A0008DC
:1000A0009F3A00089F3A00089F3A00089F3A0008CC
:1000B0009F3A0008C11100089F3A00089F3A0008C3
:1000C0009F3A00089F3A00089F3A00089F3A0008AC
:1000D0009F3A0008FB3900089F3A00089F3A000841
:1000E0009F3A00089F3A00089F3A00089F3A00088C
:1000F0009F3A00089F3A00089F3A00089F3A00087C
:100100009F3A0008792D00089F3A00089F3A00089E
:100110009F3A00089F3A00089F3A00089F3A00085B
:100120009F3A00089F3A00089F3A00089F3A00084B
:100130009F3A00089F3A00089F3A00089F3A00083B
:100140009F3A00089F3A00089F3A000849D00008EB
:100150009F3A00089F3A00089F3A00089F3A00081B
:100160009F3A00089F3A00089F3A00089F3A00080B
:100170009F3A00089F3A00089F3A00089F3A0008FB
:100180009F3A00089F3A000800F002F800F067F874
:100190000AA090E8000C82448344AAF10107DA45E2
:1001A00001D100F05CF8AFF2090EBAE80F0013F0CD
:1001B000010F18BFFB1A43F001031847F8C00300F2
:1001C00018C103000A444FF0000C10F8013B13F073
:1001D000070408BF10F8014B1D1108BF10F8015BA0
:1001E000641E05D010F8016B641E01F8016BF9D193
:1001F00013F0080F1EBF10F8014BAD1C0C1B09D1EA
:100200006D1E58BF01F801CBFAD505E014F8016B5B
:1002100001F8016B6D1EF9D59142D6D370470000ED
:100220000023002400250026103A28BF78C1FBD8FF
:10023000520728BF30C148BF0B60704764290DF0DA
:10024000898478290DF0C28473290DF0238700205A
:1002500070471FB50DF0B9FF1FBD10B510BD0DF0F3
:100260007DFF1146FFF7F5FF00F08EF80DF09BFFC4
:1002700003B4FFF7F2FF03BC03F060FB30BF72B6BC
:10028000704762B6704780F3088870471CB5002439
:1002900068A00DF003FC6A4601A96BA009F022FAE0
:1002A0000446002C31D10198800A01900098800A00
:1002B000009066A001990DF0F1FB68A000990DF087
:1002C000EDFB01236AA20221002003F056F801236E
:1002D0006AA20321002003F050F8019882B20221A3
:1002E0003C2003F06BF9009882B203213C2003F01C
:1002F00065F9012364A202215A2003F03EF801238C
:1003000061A203215A2003F038F80FE0604800682A
:1003100008B9012000E000205D49086002235DA2C9
:100320000021084603F029F80DF054FA5E480AF05F
:10033000B9F80028EAD15DA00DF0B0FB02235FA25E
:100340000021084603F019F8022361A200210846A3
:1003500003F013F8012361A20221002003F00DF83D
:1003600001235EA20321002003F007F801235BA212
:100370000421002003F001F8012358A205210020E8
:1003800002F0FBFF20461CBD08B54FF4A06003F04F
:1003900099FBA82003F050FA4FF4E13003F0DBFAA8
:1003A00000F0D0F902F05EFFFF2002F03EFF4FF4B4
:1003B0007A7003F0A3FA002002F037FF4FF47A704E
:1003C00003F09CFA002005F0FAFD09F0EFF800F0C8
:1003D0002FFB00F0A7FC0546294646A00DF05EFB6A
:1003E00000F007FC48490122886817A107F0C8FA05
:1003F00000F0C8F94548464B464A012100902A487A
:100400000AF0E8FF15E0434927480BF019FA0120EC
:1004100003F074FA601CC4B2C82C0AD11C48001D39
:10042000006808B9012000E000201949091D086092
:100430000024E8E7C9E8B1B8C1ACBDD3B3C9B9A6D7
:100440002E2E2E0A00000000323A0000546F746114
:100450006C206973202564200A0000005468652020
:100460006C656674206973202564200A0000000012
:1004700054686520546F74616C3A000054686520BC
:100480006C6566743A0000004D4279746573000033
:10049000A482424244657669636520436F6E6E654F
:1004A00063746564000000003C020020C9E8B1B834
:1004B000C1ACBDD3D6D02E2E2E0A00002020202085
:1004C00020202020202020202020202000000000AC
:1004D0004E6F20446576696365210000202020204E
:1004E000202020202020202020202020202020200C
:1004F0002000000052616D20546573743A30582515
:100500003034580D0A0000008CB401205C0100203A
:1005100044010020A8010020704700BFFEE700BF93
:10052000FEE700BFFEE700BFFEE770477047704779
:10053000704700000CB500200190009076480068DC
:1005400040F480307449086000BF7348006800F4CC
:10055000003000900198401C0190009818B9019853
:10056000B0F5A04FF1D16C48006800F4003010B134
:100570000120009001E0002000900098012846D161
:1005800065484030006840F0805063494031086061
:100590006248006840F44040604908605E480830A6
:1005A00000685D49083108600846006840F4004072
:1005B00008600846006840F4A05008605848091FC9
:1005C0000860081F006840F08070091F086000BFC5
:1005D0005148006800F000700028F9D040F2057022
:1005E000504908604C480830006820F003004A4930
:1005F000083108600846006840F00200086000BF4B
:1006000045480830006800F00C000828F8D10CBDFF
:1006100010B54548006840F47000434908603E4802
:10062000006840F001003C49086000203A49083168
:100630000860394800683D490840374908603C482F
:10064000091D0860081F006820F48020091F086049
:10065000002031490C310860FFF76CFF4FF000605B
:1006600031498039086010BD70B500200022022396
:1006700000240221284D08352D6805F00C0020B11A
:10068000042806D0082834D107E02A4D2A4E3560C8
:1006900033E02A4D284E35602FE01F4D2D1D2D686B
:1006A000C5F380541C4D2D1D2D6805F03F0154B13C
:1006B000224DB5FBF1F5184E361D3668C6F3881687
:1006C00005FB06F209E01B4DB5FBF1F5124E361D98
:1006D0003668C6F3881605FB06F20F4D2D1D2D68F2
:1006E000C5F301456D1C6B00B2FBF3F5124E35608E
:1006F00003E0104D104E356000BF00BF064D0835B9
:100700002D68C5F303150E4E705D0B4D2D68C54069
:10071000094E356070BD0000003802400070004096
:1007200008544007003C024088ED00E0FFFFF6FE61
:10073000103000240024F4000000002000127A0091
:10074000040000201CB50121202003F023FF4FF4FA
:10075000C060009001208DF8040000208DF8060094
:1007600003208DF8050001208DF807006946044834
:1007700003F072FC4FF4C061014803F0E9FC1CBDBA
:10078000001402401CB50121112003F003FF4FF4B7
:100790004770009000208DF8040003208DF80500BC
:1007A00001208DF807006946494803F055FC0120F7
:1007B000009002208DF807006946464803F04CFC83
:1007C0001CBD10B5044614B10120434908704248CD
:1007D0000078002854D010213D4803F09FFCD8B188
:1007E00008213B4803F09AFCB0B10421384803F0DB
:1007F00095FC88B10121374803F090FC01280BD00B
:100800004FF48071324803F089FC28B14FF4007135
:100810002F4803F083FC90BB0A2003F06FF8002000
:100820002D49087010212A4803F078FC08B90120EE
:1008300010BD0821264803F071FC08B90220F7E733
:100840000421234803F06AFC08B90320F0E70121E2
:10085000204803F063FC012801D10420E8E74FF4AD
:1008600080711B4803F05AFC08B90520E0E74FF4FB
:100870000071174803F052FC40BB0620D8E7FFE7A1
:100880001021134803F04AFC01281FD10821104809
:1008900003F044FC012819D104210D4803F03EFC6B
:1008A000012813D101210B4803F038FC70B94FF433
:1008B0008071074803F032FC012807D14102044847
:1008C00003F02CFC012801D1034908700020AFE798
:1008D00000100240000002401400002070B50546E0
:1008E000002405E0601CC4B2C82C01DD002070BDEE
:1008F0000221454804F0CAFC0028F3D029464248AA
:1009000004F07BFC002405E0601CC4B2C82C01DDAF
:100910000020ECE701213C4804F0B8FC0028F3D0AB
:10092000394804F067FCC0B2E1E700B587B00121A7
:10093000084603F02FFE0121080303F085FEE020A6
:10094000059002208DF8180000208DF81A00032071
:100950008DF8190001208DF81B0005A92B4803F024
:100960007BFB05221146294803F001FC05220621E4
:10097000264803F0FCFB05220721244803F0F7FB7F
:100980000121080303F0B5FE00214FF4805003F06D
:10099000B0FE0020ADF800004FF48270ADF8020008
:1009A0000020ADF804000220ADF806000120ADF8EB
:1009B00008004002ADF80A003820ADF80C00002015
:1009C000ADF80E000720ADF8100069460E4804F09F
:1009D00099FA01210C4804F08FFBFF20FFF77EFFFE
:1009E00007B000BD10B50446074800884FF6C77130
:1009F00008400549088008460088204308800121F6
:100A0000014804F079FB10BD0030014000000240B5
:100A100010B504462046FFF761FF10BD10B5202039
:100A2000FFF7E0FF10BD10B51020FFF7DBFF10BD92
:100A30001CB50121342003F0ADFD4FF400500090AF
:100A400000208DF8040002208DF805006946F84862
:100A500003F002FB4020009001208DF804000020EC
:100A60008DF806006946F34803F0F6FAC0200090BE
:100A700001208DF8040000208DF806006946EE483C
:100A800003F0EAFAFFF751FF1CBD70B505460C46AE
:100A900000BFEA4800680028FBD0FFF7BFFF012035
:100AA000E74908600020E749C1F89C020220FFF7EF
:100AB000AFFF2846FFF7ACFF2012FFF7A9FFE0B217
:100AC000FFF7A6FF0120DE49091D0860FFF7ABFF15
:100AD00070BD70B50546002400BFD84800680028E6
:100AE000FBD0FFF79BFF0120D54908600020D549C6
:100AF000C1F89C020320FFF78BFF2846FFF788FF11
:100B0000FF20FFF785FF04464FF6FF7000EA04243C
:100B1000FF20FFF77DFF204484B20120C849091D52
:100B20000860FFF780FF204670BD10B5002400BFAD
:100B3000C24800680028FBD0FF20FFF769FF0024AF
:100B40000DE040F604010020FFF79FFF022002F0B5
:100B5000D5FE2046611CCCB2642800DD05E00020F3
:100B6000FFF7B7FFB0F5006FEBD100BF00BFB34890
:100B700000680028FBD000240AE04FF4184103204D
:100B8000FFF783FF2046611CCCB2642800DD05E03E
:100B90000320FFF79EFFB0F5184FEED100BF1420E1
:100BA00002F0ACFE10BD10B500240020A64908607C
:100BB000142002F0A3FE0120A249C1F89802A04926
:100BC000091D0860A149C1F8980204E0601CC4B284
:100BD000322002F04BFE9948006808B9C82CF5DBBA
:100BE000142002F08BFEC82C01DB012010BD002078
:100BF000FCE710B5FFF7D7FF42F220010B20FFF70B
:100C000044FF4FF402610020FFF73FFF00BF8B4815
:100C100000680028FBD0FFF701FF0020884908602A
:100C20005320FFF7F5FEEF20FFF7F2FE6E20FFF7EF
:100C3000EFFE2420FFF7ECFE0020FFF7E9FE002086
:100C4000FFF7E6FE0020FFF7E3FE0020FFF7E0FEDF
:100C5000642002F053FE01207A49C1F89802002076
:100C6000774908604520FFF7D3FE7820FFF7D0FED4
:100C70006920FFF7CDFE7420FFF7CAFE0020FFF7C2
:100C8000C7FE0020FFF7C4FE0020FFF7C1FE0020D2
:100C9000FFF7BEFE642002F031FE012068490860C3
:100CA000002008605320FFF7B3FEEF20FFF7B0FEEF
:100CB0006E20FFF7ADFE4420FFF7AAFE0020FFF7ED
:100CC000A7FE0020FFF7A4FE0020FFF7A1FE0020F2
:100CD000FFF79EFE642002F011FE012058490860D3
:100CE000002008604520FFF793FE7820FFF790FE74
:100CF0006920FFF78DFE7420FFF78AFE0020FFF7C2
:100D000087FE0020FFF784FE0020FFF781FE002011
:100D1000FFF77EFE642002F0F1FD01204949C1F891
:100D2000980210BD10B5FFF73EFF4FF4026100209E
:100D3000FFF7ABFE00BF414800680028FBD0FFF77B
:100D40006DFE00203E4908604D20FFF761FEEA205D
:100D5000FFF75EFE6D20FFF75BFE5420FFF758FEA5
:100D60000020FFF755FE0020FFF752FE0020FFF79E
:100D70004FFE0020FFF74CFE962002F0BFFD012041
:100D80003049C1F898020820FFF7A3FE10BD10B546
:100D90000446FFF748FE0020294908602046FFF777
:100DA00037FE01202749C1F8980210BD70B50446EE
:100DB00021460720FFF769FE0620FFF78AFE054659
:100DC000284670BD70B504460D4621460720FFF742
:100DD0005CFE00BF194800680028FBD029460620A9
:100DE000FFF753FE70BD10B50446214641F604607E
:100DF000FFF7E8FF10BD70B50820FFF76AFE054653
:100E00000920FFF766FE044644F66771601A8C42BB
:100E10002DD01DDCA4F58040A0F5A27028B31028C9
:100E200022D0B0F53F6F21D0B0F5416F37D11AE035
:100E30000008024000100240001402403402414207
:100E4000988242420080424298024242000042425E
:100E5000A0F2E67060B1A0F6FF6050B1A0F580503E
:100E60001938E0B900BF00BF00BF00BF00BF00BF1E
:100E700000BF68001921B0FBF1F40A20B4FBF0F1C7
:100E800000FB1140052805D90A20B4FBF0F0401CF6
:100E900080B270BD0A20B4FBF0F080B2F9E7E4083C
:100EA00004F00304032C01D1012400E00024AA482B
:100EB00000EB4410290B30F81100EAE710B541F6B9
:100EC0000560FFF773FF10BD10B541F60660FFF730
:100ED0006DFF10BD70B50546A048006878B10020D0
:100EE0009F490860002404E0285DFFF791FD601C25
:100EF000C4B2202CF8DB01209949086001E00120F0
:100F000070BD0020FCE770B588B0002604E000202A
:100F10000DF80600701CC6B2202EF8DB0020FFF78B
:100F2000D8FD044644F0080444F00404214600209F
:100F3000FFF7ABFD00250EE06846FFF7CBFF50B989
:100F400005F1200085B20020FFF7C3FD044604F040
:100F5000080000B902E0B5F5006FEDDB00BFB5F5A4
:100F6000006F19DAFFF7B0FFC4B2002604E0E0B268
:100F70000DF80600701CC6B2202EF8DB002506E036
:100F80006846FFF7A7FF10B905F1200085B240F6CB
:100F900004008542F4DB01E0FFF7C7FD0820FFF7FE
:100FA00098FD04460920FFF794FD204484B21CB14B
:100FB000FFF7F9FDFFF7B9FD08B070BD10B50021CE
:100FC0000420FFF762FD00210420FFF75EFD10BD45
:100FD00010B500240420FFF77CFD0446204610BD18
:100FE0002DE9F0470446884600252DE02846691C77
:100FF0008DB234F810702846691C8DB234F8106038
:1010000006F4004088B1C6F30E062846691C8DB26E
:1010100034F8109003E0F8B24946FFF736FD30008F
:10102000A6F101018EB20FD0F5E708E02846691C51
:101030008DB234F81090F8B24946FFF726FD300023
:10104000A6F101018EB2F1D14545CFDBBDE8F087B5
:1010500070B505460024C5F1FE0084B24FF6FF705E
:1010600000EA0424C5F1FE00204484B221460B208E
:10107000FFF70BFD70BD2DE9F04706460F46904681
:101080001D460024A14605B90AE0082D04DDA5F19E
:1010900008004FFA80F903E0A5F109004FFA80F942
:1010A00009F00F044FF6FF7000EA041408F00F0077
:1010B00004444FF6FF7000EA041407F00F000444E4
:1010C0004FF6FF7000EA041406F00F00204484B2CB
:1010D00021460220FFF7D9FCBDE8F08770B5054630
:1010E0000020FFF7F6FC044605F0010010B144F0C3
:1010F000100401E024F0200405F0020010B144F0D7
:10110000800401E024F0800421460020FFF7BDFCAC
:1011100070BD10B5044610214CF21700FFF752FEC7
:1011200021014CF21900FFF74DFE10BD10B50D491D
:101130000878FFF78DFF0B4C2379E278A17860786F
:10114000FFF799FF21464879FFF7C8FF21468879C4
:10115000FFF7DFFF10BD0000D4E100083402414278
:1011600098824242150000207FB505460C460121B9
:10117000022003F058FA0295ADF804400020ADF8C3
:101180000600ADF80C0001A9124804F05CF9012238
:101190001146104804F0F8FD01210E4804F0DCF976
:1011A0001D208DF8000001208DF8010003208DF82E
:1011B000020001208DF80300684602F088FC7FBD24
:1011C00010B50121034804F0F6FD0121014804F0A7
:1011D00003FE10BD000400400020FE490860091D08
:1011E0000860091D0860091D0860FA49243108607B
:1011F000091D0860091D0860F748F6493831086084
:101200000020091D0860704701460020012900D018
:1012100011B9F24B197000E0262070470146ED4AE3
:10122000121D106820F0FF0008431060704770B571
:10123000044606E0E7483430056805F0450000B193
:1012400000E0F7E700BF042003F0C0FB20B104205A
:1012500003F0C7FB032070BD012003F0B7FB20B1F2
:10126000012003F0BEFB0120F5E7DA4810300068EA
:10127000A04201D01020EEE740F2FF5003F0B1FB96
:10128000D4481430006808210840C0B2E3E72DE9D3
:10129000FC4107460D4600260024002000900190E6
:1012A0000820CF4908601020486040208860002056
:1012B000C8604FF480600861084603F0F4FA10201B
:1012C000FFF7B5FF044614B12046BDE8FC81C548D0
:1012D00000880004C24908603720486040208860C8
:1012E0000020C8604FF480600861084603F0DBFA14
:1012F0003720FFF79CFF04460CB12046E5E74FF08E
:10130000FF30B9490860082048603020886002201A
:10131000C8600020086101204861084603F0EFFA28
:101320000020AF49086033204860402088600020DA
:10133000C8604FF480600861084603F0B4FA3320B7
:10134000FFF775FF04460CB12046BEE70DE04FF4F1
:10135000001003F03BFB40B19E48803000684DF820
:101360002600761C022E00D307E09A48343000682D
:1013700040F22A6108400028E9D000BF082003F0AD
:1013800025FB20B1082003F02CFB04209DE7022060
:1013900003F01CFB20B1022003F023FB022094E7A2
:1013A000202003F013FB20B1202003F01AFB0620BD
:1013B0008BE74FF4007003F009FB28B14FF4007085
:1013C00003F00FFB072080E740F2FF5003F009FB1A
:1013D00000980006009901F47F4140EA012000993D
:1013E00001F47F0140EA1120009940EA1160686031
:1013F00001980006019901F47F4140EA012001991A
:1014000001F47F0140EA1120019940EA116028604F
:1014100020465AE77CB50546002400200090019044
:1014200000260DB1022600E000266A48143000684C
:1014300000F0007008B10E207CBD6A49098888B2AE
:101440006946FFF724FF04460CB12046F4E70198F3
:1014500000F4802060B3634800880004604908609D
:1014600037204860402088600020C8604FF48060CA
:101470000861084603F017FA3720FFF7D8FE044644
:101480000CB12046D8E7564806600620544948600B
:10149000402088600020C8604FF4806008610846E2
:1014A00003F001FA0620FFF7C2FE04462046C3E718
:1014B0002520C1E770B5044600254C480078032874
:1014C00002D12725284670BD4848007838B14748E2
:1014D0000078012803D045480078022819D1B4F5D6
:1014E000805F02D127252846EDE7E0B2FFF792FFA3
:1014F000054675B93748001D006820F4C0503549CD
:10150000091D086008460068204308600846006816
:1015100008602846D7E710B5044631480460072024
:101520002F494860402088600020C8604FF48060E8
:101530000861084603F0B7F90720FFF778FE10BDF1
:10154000F0B5014600200022284B1B7881F8563068
:10155000244B1B88A1F85430254B1B681A0E9309A5
:101560000B70C2F383034B7002F003038B70204BAC
:101570001B68C3F30742CA701D4B1B88C3F30722C5
:101580000A711B4B1A784A715B681A0E1301CB80E3
:10159000174B5B68C3F30742CB8843EA1213CB8037
:1015A00002F00F030B72124B9B88C3F30722D3097F
:1015B0004B72C2F380138B72C2F34013CB72C2F32F
:1015C00000130B7300234B73084B1B78C3B1074BFD
:1015D0001B780FE0002C0140FF07C000280000200E
:1015E0000008002024000020140800202000002013
:1015F0002C080020012B03D0FE4B1B78032B4FD16E
:1016000093071B0D0B61FC4B1A790B6943EA8203AC
:101610000B61F94B9B681A0E0B6943EA92130B613D
:10162000C2F3C2030B7502F007034B75F24B9B68C4
:10163000C3F3074253098B75C2F38203CB7593073B
:101640005B0F0B76EC4B1B89C3F307220B7E43EA3F
:10165000D2130B760B695B1C0024C1E912340B7E9C
:101660009B1C012404FA03F3DC17D1E91256A5FBF5
:10167000037C06FB03C305FB0433C1E912730C7A38
:101680000123A3400B650024D1E912650B6DA6FB75
:10169000037C05FB03C306FB0433C1E912732EE090
:1016A000D44B1B78022B2AD1D34B1A7993069B0A71
:1016B0000B61D14B9B681A0E0B6943EA02230B6145
:1016C000CD4B9B68C3F307420B6913430B61CA4BB5
:1016D0001B89C3F307220B695B1C4FF40074A3FB47
:1016E00004464FF480630025A4FB037C06FB03C380
:1016F00004FB0533C1E912734FF400730B65C2F3A9
:10170000801301F8193F93065B0E4B70BA4B1A7A9F
:101710004B7843EAD2134B7002F07F038B70B64BC9
:10172000DB681A0ED309CB70C2F341130B71C2F3FD
:1017300082034B7193071B0F8B71AF4BDB68C3F3B5
:1017400007428B7943EA92138B71C2F34013CB713A
:1017500000230B7202F001034B72A74B9B89C3F36A
:101760000722D3098B72C2F38013CB72C2F34013EA
:101770000B73C2F300134B73C2F381038B7302F03C
:101780000303CB739C4B1A7B53080B7401234B74DC
:101790009A4B1B681A0ECA741939984B1B68C3F30D
:1017A00007421402CC85954B1B88C3F30722CB8DCF
:1017B0001343CB85914B1A7814060C635B681A0EA1
:1017C0000B6B43EA02440C638C4B5B68C3F3074228
:1017D0000B6B43EA02240C63884B9B88C3F30722FC
:1017E0000B6B13430B63854B1A7934235A54834B89
:1017F0009B681A0E35235A54804B9B68C3F30742EB
:1018000014068C637D4B1B89C3F307228B6B43EA61
:1018100002448C63794B1A7A8B6B43EA02248C6303
:10182000764BDB681A0E8B6B13438B63734BDB6851
:10183000C3F307423C235B5C43EA12143C235C5431
:1018400013071C0DCC876D4B9B89C3F30722CB8FED
:101850001343CB87694B1A7B540840235C54012403
:1018600041235C54F0BD70B500264FF4803505E08F
:101870006348046804F0450000B103E02800A5F1C6
:101880000105F5D100BF15B104F0040028B103260D
:10189000042003F0A6F8304670BD012003F096F84E
:1018A00018B10126012003F09CF840F2FF5003F02C
:1018B00098F83046F0E72DE9F04105460E464FF026
:1018C000000805E04E48076807F0450000B100E059
:1018D000F8E700BF042003F079F828B1042003F0F2
:1018E00080F80320BDE8F081012003F06FF820B1FB
:1018F000012003F076F80120F4E74148243800681D
:10190000A84201D01020EDE740F2FF5003F069F843
:101910003B482038046804F4604018B9200C30803B
:101920004046DFE704F4005008B11320DAE704F47E
:10193000804008B11020D5E704F4004008B10F2022
:10194000D0E74046CEE738B500240120009002F0F1
:10195000A4FF10B92524204638BD26480078042865
:1019600025D000202749086002204860C0208860F8
:101970000020C8604FF480600861084602F093FFC1
:10198000FFF771FF04460CB12046E5E71C482038FC
:1019900000681A4908601A481C38006848601848EE
:1019A000183800688860164814380068C860114804
:1019B000007858B10F480078012807D00D4800780A
:1019C000062803D00B480078022821D100200D49B9
:1019D000086003204860402088600020C8604FF401
:1019E00080600861084602F05EFF69460320FFF749
:1019F00062FF09E0200000202C0800203C080020A5
:101A0000342C01400008002004460CB12046A3E716
:101A1000FE480078032816D1BDF800000004FC49F8
:101A2000086003204860402088600020C8604FF4B0
:101A300080600861084602F036FFFFF714FF044695
:101A40000CB1204688E7F148007804282AD0BDF878
:101A50000000F0490860BDF800000004EC4908608F
:101A600009204860C02088600020C8604FF4806072
:101A70000861084602F017FFFFF7F5FE04460CB1B7
:101A8000204669E7E4480068E4490860E248001D30
:101A900000684860E048083000688860DE480C3024
:101AA0000068C860002057E710B506E0DA4820302B
:101AB000046804F0450000B100E0F7E700BF04202F
:101AC00002F084FF20B1042002F08BFF032010BD40
:101AD00040F2FF5002F085FF0020F8E770B50026C5
:101AE0004FF4803506E0CC482030046804F045000F
:101AF00000B103E02800A5F10105F4D100BF15B144
:101B000004F0040028B10326042002F06AFF3046E6
:101B100070BD04F0400018B10026402002F061FFC3
:101B20003046F5E770B500254FF4803404E080209E
:101B300002F04CFF00B103E02000A4F10104F6D153
:101B400000BF0CB9032070BD40F2FF5002F049FF06
:101B50002846F8E72DE9F047002700240026002555
:101B6000A046A1467620AE4908750020086048606E
:101B70008860C8600861084602F06BFE032002F02E
:101B800088FEA5481038006840F48070A2491039DA
:101B9000086000BF12E000209D490860486088602E
:101BA000C8604FF480600861084602F07CFEFFF7D1
:101BB000B9FF044604B903E0781CC7B24A2FEADB38
:101BC00000BF14B12046BDE8F0874FF4D5709049AE
:101BD000086008204860402088600020C8604FF4FA
:101BE00080600861084602F05EFEFFF777FF04465A
:101BF00024B90120854908704FF0804900208449AC
:101C0000086037204860402088600020C8604FF49A
:101C100080600861084602F046FE3720FFF707FBA8
:101C20000446002C4BD134E000207949086037206D
:101C30004860402088600020C8604FF480600861E0
:101C4000084602F030FE3720FFF7F1FA04460CB1E7
:101C50002046B8E7734849EA00006D49086029202A
:101C60004860402088600020C8604FF480600861B0
:101C7000084602F018FEFFF717FF04460CB1204695
:101C8000A1E765480668012080EAD67080F0010867
:101C90006D1CB8F1000F03D14FF6FF708542C3D31E
:101CA0004FF6FF70854202D31B2420468BE706F0D7
:101CB0008040060032D00220544908702EE01CE01B
:101CC000594853490860012048604020886000203E
:101CD000C8604FF480600861084602F0E4FDFFF739
:101CE000E3FE04460CB120466DE74B480668012030
:101CF00080EAD67080F001086D1CB8F1000F03D1A6
:101D00004FF6FF708542DBD34FF6FF70854202D35A
:101D10001B24204657E703203C490870204652E721
:101D20003EB5002400250121404802F033FC01218A
:101D3000C80202F089FC0121C80202F0DAFC4FF46B
:101D4000F850019002208DF808008DF8090000205D
:101D50008DF80A0001208DF80B0001A9344802F02B
:101D60007BF90420019001A9324802F075F90C2298
:101D700008212F4802F0FBF90C2209212C4802F01F
:101D8000F6F90C220A212A4802F0F1F90C220B2163
:101D9000274802F0ECF90C221146254802F0E7F939
:101DA0000C220221234802F0E2F900214FF40060E6
:101DB00002F09FFCFFF710FA31208DF800000020A0
:101DC0008DF801008DF8020001208DF803006846AF
:101DD00001F07DFEFFF7BEFE044614B9FFF7B3FD28
:101DE00004461CB91448FFF7ABFB044634B912494A
:101DF000B1F854100804FFF78EFB044624B94FF4E1
:101E00000060FFF757FB0446E4B117E02000002014
:101E10000008002024000020142C01402C08002081
:101E2000E8070020000010800080FF800C004000C8
:101E300000080240000C024050080020FE480078D4
:101E4000032812D1FD4890F8560020B1FB4890F8C5
:101E50005600012801D1022500E000252846FFF7A1
:101E6000DDF90020FFF7D0F9044620463EBD10B54D
:101E7000002002F00EFD002010BD70B590B00446A9
:101E80000E46154600BFEE4801F0B5FF0028FAD116
:101E9000EB4801F087FE4FF000600190E9480290A6
:101EA000039404950020059006904FF480600790FD
:101EB000800008908000099000200A904FF4403084
:101EC0000B9004200C9003200D904FF400000E9016
:101ED00080100F9001A9DA4801F006FF2021D848B0
:101EE00001F052FF0121D64801F038FF10B070BD5B
:101EF0000146002002E04910421CD0B20129FAD16B
:101F000070472DE9F84F8146174698460A9C4FF0D6
:101F1000000AD3464D464FF0FF36B9F1000F02D10B
:101F20002620BDE8F88F0020C64954390860C24811
:101F30000078022805D10402780A40EAC8574FEA1F
:101F400068280020C04988604860401E0860012061
:101F500048610020C8600861084602F0D0FCB9481A
:101F60006C38006800F0007008B10E20D9E7002C32
:101F700021DDB4F5006F1EDC601E2040D8B920467C
:101F8000FFF7B6FF0090B14804601020AF494860E9
:101F9000402088600020C8604FF4806008610846D7
:101FA00002F081FC1020FFF742F98246BAF1000FDF
:101FB00003D05046B5E72620B3E700980001A249B8
:101FC0008860084644604FF0FF3008600120486197
:101FD0000220C86000200861084602F090FC9B487F
:101FE0000760112099494860402088600020C8603F
:101FF0004FF480600861084602F055FC1120FFF79D
:1020000016F98246BAF1000F01D0504689E7904890
:10201000007800285AD1FEF732F917E04FF400405B
:1020200002F0D4FC70B14FF0000B05E08548006869
:1020300045F82B000BF1010BBBF1080FF6D320354F
:10204000844E03E00EB904206BE7761E7D484C38C1
:10205000006840F22A6108400028DFD0082002F022
:10206000B5FC20B1082002F0BCFC042059E7022096
:1020700002F0ACFC20B1022002F0B3FC022050E7D9
:10208000202002F0A3FC20B1202002F0AAFC0620B0
:1020900047E74FF4007002F099FC28B14FF400704C
:1020A00002F09FFC07203CE703E0664800682860D8
:1020B0002D1D4FF4001002F089FC0028F5D1FEF729
:1020C000E0F840F2FF5002F08CFC39E06048007804
:1020D000012835D1002060490870604908706049C6
:1020E000087058484438006840F22A31084355497E
:1020F0004439086053485438006840F0080051499A
:1021000054390860002221464846FFF7B6FE00E039
:10211000761E4B485838006800F0006038B95048C7
:10212000007820B94C48007808B9002EF0D10EB9DB
:102130000420F6E64848007810B1474890F800A01F
:102140005046EEE62DE9FF5F17469846DDE90E465C
:102150004FF00009CA464FF0FF3542490098086029
:10216000002038495439086033480078022805D1E6
:102170000402780A40EAC8574FEA6828002032492A
:1021800088604860401E0860012048610020C860E7
:102190000861084602F0B3FB2A486C38006800F07A
:1021A000007018B10E2004B0BDE8F09F002C21DDB6
:1021B000B4F5006F1EDC601E2040D8B92046FFF742
:1021C00097FE834621480460102020494860402043
:1021D00088600020C8604FF480600861084602F003
:1021E00062FB1020FFF723F88146B9F1000F03D0FE
:1021F0004846D8E72620D6E7012E6ED906FB04F024
:10220000B0F1007F01D32620CDE74FEA0B100E4935
:10221000886006FB04F048604FF0FF300860012042
:1022200048610220C86000200861084602F067FB90
:1022300006480760122017E0200000205008002008
:1022400058640240802C014014080020000800203F
:1022500028000020FFFF7F002A0000202900002026
:102260002B0000202C000020F949486040208860A5
:102270000020C8604FF480600861084602F013FB3C
:102280001220FEF7D4FF8146B9F1000F01D0484675
:1022900089E7F048007800287ED1FDF7F0FF1EE0C6
:1022A0004FF4004002F092FBA0B14FF0000A07E0AB
:1022B000E9480068E949096841F82A000AF1010A79
:1022C000BAF1080FF4D3E54800682030E34908600C
:1022D000E34D04E015B9042065E7AEE06D1EDE486D
:1022E0004C38006840F22A3108400028D8D0082035
:1022F00002F06CFB20B1082002F073FB042052E7CF
:10230000022002F063FB20B1022002F06AFB0220EF
:1023100049E7202002F05AFB20B1202002F061FBA7
:10232000062040E74FF4007002F050FB28B14FF454
:10233000007002F056FB072035E709E0C648006848
:10234000C64909680860C5480068001DC34908609F
:102350004FF4001002F03AFB0028EFD14FF48070E8
:1023600002F034FB20B3BF48007838B1BD48007894
:10237000012803D0BB480078022819D10020B449B5
:1023800008600C204860402088600020C8604FF43E
:1023900080600861084600E011E002F084FA0C2039
:1023A000FEF745FF8146B9F1000F01D04846FAE635
:1023B000FDF767FF40F2FF5002F013FB3DE0A54838
:1023C0000078012839D10020A74908700120A749C9
:1023D00008700020A64908709F484438006840F201
:1023E0002A3108439C49443908609B4854380068A6
:1023F00040F0080098495439086006FB04F10022B7
:102400000098FFF73AFD00E06D1E9A48006800F062
:10241000006008B9002DF7D10DB90420C3E600BF54
:102420009348007818B9904800780028F8D08E4872
:10243000007810B18C4890F800904846B3E61CB57F
:1024400004460020019000908B48008800048049D9
:1024500008600D204860402088600020C8604FF46C
:1024600080600861084602F01EFA7B484C3800681C
:10247000009003E078484C3800680090009800F025
:1024800045000028F6D0012002F0A0FA20B101207A
:1024900002F0A7FA01201CBD042002F097FA20B137
:1024A000042002F09EFA0320F5E76B4870380068BC
:1024B0000D2801D01020EEE740F2FF5002F091FA13
:1024C00065486C38006801900198C0F34320207083
:1024D0000020E0E72DE9FF5F86B017469846149D7F
:1024E0000026002005900490002481460390824637
:1024F00002900195DDF818B0DDF818B0BBF1000FBF
:1025000003D126200AB0BDE8F09F0020524954397B
:1025100008605A4988604860401E08600120486190
:102520000020C8600861084602F0E9F94A486C38A2
:10253000006800F0007008B10E20E3E74948007819
:10254000022805D10502780A40EAC8574FEA6828F0
:10255000002D1FDDB5F5006F1CDC681E2840C8B9D2
:102560002846FFF7C5FC059039480560102038491A
:102570004860402088600020C8604FF48060086197
:10258000084602F090F91020FEF751FE06461EB1F3
:102590003046B7E72620B5E73748008800042C49C5
:1025A00008600D204860402088600020C8604FF41B
:1025B00080600861084602F076F90D20FEF737FECC
:1025C00006460EB130469DE723486C3800680390FC
:1025D0004FF0FF341CE0641E2748008800041C49AB
:1025E00008600D204860402088600020C8604FF4DB
:1025F00080600861084602F056F90D20FEF717FECC
:1026000006460EB130467DE713486C3800680390EB
:10261000039800F4807008B9002CDCD10CB9292093
:1026200070E70B480760182009494860402088601F
:102630000020C8604FF480600861084602F033F95A
:102640001820FEF7F4FD0646D6B130465AE70000E2
:102650000008002028000020802C01402C000020D1
:10266000FFFF7F00200000202A000020290000201A
:102670002B000020006402402400002014080020E9
:102680000020F849087005980001F749886008465D
:1026900045604FF0FF300860012048610020C860AD
:1026A0000861084602F02BF94FF0FF34EF4800783C
:1026B00000287CD1FDF7E3FD43E04FF4804002F0B9
:1026C00085F9C8B30198A0EB0900202821D2019810
:1026D000A0EB090000F0030020B90198A0EB09006D
:1026E000800804E00198A0EB09008008401C0290DB
:1026F0004FF0000A09E0DE49DBF8000008600AF14B
:10270000010A0BF1040B09F1040902988245F2D386
:102710000FE04FF0000A05E05BF82A00D44908609A
:102720000AF1010ABAF1080FF6D30BF1200B09F1F7
:1027300020096FF0404404E0FFE70CB90420E1E613
:10274000641ECB484C38006840F21A6108400028EB
:10275000B3D0082002F03AF920B1082002F041F984
:102760000420CFE6022002F031F920B1022002F06D
:1027700038F90220C6E6102002F028F920B1102016
:1027800002F02FF90520BDE64FF4007002F01EF9AB
:1027900030B14FF4007002F024F90720B2E606E0F1
:1027A000FDF76FFD40F2FF5002F01BF943E0AF4828
:1027B000007801283FD10020AE490870A94908706F
:1027C000AD490870AA484438006840F21A310843FD
:1027D000A74944390860402229460698FFF74DFB77
:1027E000A3485438006840F00800A14954390860F3
:1027F00000E0641EA148006800F0006008B9002CE9
:10280000F7D11CB9FFF78CFA04207BE64FF0FF34B8
:1028100000E0641E9848007820B99648007808B90E
:10282000002CF6D10CB904206CE69248007810B167
:102830009048007866E640F2FF5002F0D2F804A813
:10284000FFF7FDFD064603E004A8FFF7F8FD064686
:102850003EB99DF810000728F6D09DF81000062814
:10286000F2D030464EE62DE9FF5F84B0DDE9124735
:1028700000260020039002900025804681460190AA
:1028800007FB04FBDDF810A0DDF810A0BAF1000F83
:1028900003D1262008B0BDE8F09F002074495439C8
:1028A0000860714988604860401E086001204861E6
:1028B0000020C8600861084602F021F86C486C38B6
:1028C000006800F0007008B10E20E3E76C48007863
:1028D000022808D10402DDE90601400A40EAC1509D
:1028E0004912CDE90601002C1FDDB4F5006F1CDC98
:1028F000601E2040C8B92046FFF7FAFA03906148ED
:10290000046010205F494860402088600020C86053
:102910004FF480600861084601F0C5FF1020FEF703
:1029200086FC06461EB13046B4E72620B2E7012FEA
:102930006FD907FB04F0B0F1007F01D32620A9E78F
:102940004F48007838B14E480078012803D04C48F1
:10295000007802282DD14C480088000449490860BD
:1029600037204860402088600020C8604FF48060B5
:102970000861084601F097FF3720FEF758FC06462D
:102980000EB1304686E73F48076017203D49486052
:10299000402088600020C8604FF4806008610846CD
:1029A00001F081FF1720FEF742FC06460EB13046CB
:1029B00070E7344906980860192048604020886014
:1029C0000020C8604FF480600861084601F06BFF8A
:1029D0001920FEF72CFC06460EB130465AE7039844
:1029E00000012149886007FB04F048604FF0FF3088
:1029F0000860012048610020C8600861084601F0B5
:102A00007EFF1A480078002872D1451EFDF737FC7A
:102A100054E0F8E04FF4804001F0D8FFB0B3ABEBE6
:102A20000800202833D2ABEB080000F0030018B9EF
:102A3000ABEB0800800803E0ABEB08008008401C0B
:102A400001904FF0000909E00949DAF80000086038
:102A500009F101090AF1040A08F104080198814505
:102A6000F2D324E0290000201408002028000020D0
:102A7000802C01402A0000202B000020006402402E
:102A800020000020000800202400002012E04FF069
:102A9000000905E05AF82900F749086009F1010921
:102AA000B9F1080FF6D30AF1200A08F120086FF0F7
:102AB000404503E00DB90420ECE66D1EEE484C38AD
:102AC000006840F21A3108400028A3D0082001F025
:102AD0007DFF20B1082001F084FF0420DAE6022007
:102AE00001F074FF28B1022001F07BFF0220D1E643
:102AF00040E0102001F06AFF20B1102001F071FFCA
:102B00000520C7E64FF4007001F060FF28B14FF4D4
:102B1000007001F066FF0720BCE64FF4807001F002
:102B200055FF00B3D548007838B1D4480078012863
:102B300003D0D2480078022815D10020D04908607F
:102B40000C204860402088600020C8604FF48060FE
:102B50000861084601F0A7FE0C20FEF768FB064658
:102B60000EB1304696E6FDF78CFB40F2FF5001F0C7
:102B700038FF48E0C3480078012844D10020C2490A
:102B800008700120C14908700020C1490870BA4886
:102B90004438006840F21A310843B74944390860A4
:102BA00007FB04F140220498FFF767F9B248543854
:102BB000006840F00800B049543908604FF0FF3514
:102BC00000E06D1EB348006800F0006008B9002DF9
:102BD000F7D11DB9FFF7A4F804205BE64FF0FF35ED
:102BE00000E06D1EAA48007820B9A748007808B90F
:102BF000002DF6D10DB904204CE6A348007810B1A1
:102C0000A148007846E640F2FF5001F0EAFE02A833
:102C1000FFF715FC064603E002A8FFF710FC064686
:102C20003EB99DF808000728F6D09DF80800062850
:102C3000F2D030462EE610B54FF4807001F0C6FE9B
:102C400088B392480078012814D100208C4908608C
:102C50000C204860402088600020C8604FF48060ED
:102C60000861084601F01FFE0C20FEF7E0FA8649D5
:102C7000087002E00020844908707F4848380068E6
:102C800040F480707C4948390860081D00684CF2A7
:102C90003A31884378494439086001207C490870FA
:102CA0007948007810BDFFE7022001F08FFE78B16F
:102CB000022001F096FE7048443800684CF23A3128
:102CC00088436D494439086002206F490870E9E77C
:102CD000082001F07BFE78B1082001F082FE6648F2
:102CE000443800684CF23A318843634944390860FB
:102CF000042065490870D5E7202001F067FE78B10F
:102D0000202001F06EFE5C48443800684CF23A31F5
:102D1000884359494439086006205B490870C1E777
:102D2000102001F053FE78B1102001F05AFE5248F5
:102D3000443800684CF23A3188434F4944390860BE
:102D4000052051490870ADE74FF4007001F03EFED8
:102D500080B14FF4007001F044FE474844380068E9
:102D60004CF23A31884344494439086007204649C7
:102D7000087097E7002095E710B5FFF75CFF10BDDE
:102D800070B50446002514B92625284670BD424872
:102D9000008800043A4908600D204860402088609F
:102DA0000020C8604FF480600861084601F07BFD98
:102DB0000D20FEF73CFA05460DB12846E6E72E4801
:102DC0006C38006820602846E0E708B500200090D5
:102DD0006846FFF7D5FF08B1FF2008BD0098C0F393
:102DE0004320FAE72DE9FE4F83460C46914600202A
:102DF0000290002625462C46700240EAD5566D0208
:102E00000BF00300F0B14FF0000A18E04FF400702F
:102E100000904FEA4A20471946EBE0733A461F48B4
:102E2000FFF76FF802904FF400721C4958460AF001
:102E3000C5FF0BF5007B0AF1010000F0FF0ACA454F
:102E4000E4DB16E0B9F1010F09D14FF400702A4616
:102E5000334600905846FFF754F8029009E04FF4CB
:102E600000702A463346CDE900095846FFF76AF953
:102E700002900298BDE8FE8F802C014020000020C7
:102E800000080020280000202A000020290000203F
:102E90002B0000200064024024000020A80800202D
:102EA0002DE9FE4F81460C469246002002900026F6
:102EB00025462C46700240EAD5566D0209F0030003
:102EC000F0B14FF0000B18E04FF40072494619487A
:102ED0000AF074FF4FF4007000904FEA4B2047193E
:102EE00046EBE0733A461348FFF7F4FA029009F50F
:102EF00000790BF1010000F0FF0BD345E4DB16E095
:102F0000BAF1010F09D14FF400702A463346009000
:102F10004846FFF7DFFA029009E04FF400702A46B6
:102F20003346CDE9000A4846FFF79DFC029002981F
:102F3000BDE8FE8FA80800201CB50121084601F05D
:102F400029FB0121042001F025FB4FF48070009043
:102F500001208DF8040000208DF8060003208DF874
:102F6000050001208DF807006946F84801F074F863
:102F70004FF4007000906946F54801F06DF80120AB
:102F8000F4490860F449C1F8A4021CBD10B5F0482A
:102F9000006820F44020EE4908600846006840F4CC
:102FA000802008600120ED490860ED49C1F8A002C9
:102FB000022000F05BFC0020E8490860022000F0DD
:102FC00055FC0020E649C1F8A00210BD10B5E0484C
:102FD000006820F44020DE4908600846006840F49C
:102FE000802008600020DB490860DB49C1F8A402AA
:102FF000022000F03BFC0120D6490860D649C1F808
:10300000A402022000F032FC10BD10B50024D0480C
:10301000006820F44020CE49086008460068086037
:103020000120CE49086000F021FC0120CC49C1F804
:10303000A00200F01BFC07E0601CC4B2FA2C03DD08
:10304000FFF7C4FF012010BDC44880380068002885
:10305000F2D1C049086000BFF5E710B50020BD49B6
:103060000860BB48006820F44020B9490860084661
:10307000006840F4802008600020B749C1F8A4022D
:10308000042000F0F3FB0120B2490860042000F0A6
:10309000EDFB0020B249C1F8A00210BD10B5002020
:1030A000AC490860AA48006820F44020A84908609C
:1030B0000846006840F4802008600120A649C1F855
:1030C000A402042000F0D2FB0120A24908600420E1
:1030D00000F0CCFB0020A249C1F8A00210BD70B5E1
:1030E00004469B48006820F440209949086008463F
:1030F000006840F4802008600020964908600025A0
:103100001CE0E00918B101209449086002E00020A9
:10311000924908606006040E052000F0A7FB01201C
:103120008C490860052000F0A1FB00208C49C1F803
:10313000A002052000F09AFB681CC5B2082DE0DB58
:1031400070BD70B5054600248148006820F4402019
:103150007F490860084600680860002616E00020E5
:103160007C490860052000F081FB01207C49C1F802
:10317000A0026006040E79488038006808B1601C1F
:10318000C4B2052000F072FB701CC6B2082EE6DB4C
:1031900015B9FFF783FF01E0FFF75FFF204670BD21
:1031A00010B50446FFF7F2FE7820FFF798FFFFF70F
:1031B0002CFF4020FFF793FFFFF727FF2046FFF784
:1031C0008EFFFFF722FFFFF701FF10BD10B5044689
:1031D000FFF7DCFE7820FFF782FF03E0FFF715FF23
:1031E00000B900E0FAE700BF0020FFF778FFFFF723
:1031F0000CFF2046FFF773FFFFF707FFFFF7E6FE20
:1032000010BD70B504460D4605F1B001C8B2FFF718
:10321000DDFF102141EA1410FFF7D8FF04F00F0181
:1032200041F00100FFF7D2FF70BD70B506460024E3
:1032300015E004F1B001C8B2FFF7C8FF0120FFF7A5
:10324000C5FF1020FFF7C2FF002504E03046FFF75E
:10325000A7FF681CC5B2802DF8DB601CC4B2082C27
:10326000E7DB70BD10B5FFF767FE4FF4FA7000F0B2
:1032700045FBAE20FFF7AAFF2020FFF7A7FF102095
:10328000FFF7A4FFB020FFF7A1FFC820FFF79EFFC4
:103290000020FFF79BFF1020FFF798FF4020FFF76B
:1032A00095FF8120FFF792FFFF20FFF78FFFA120FE
:1032B000FFF78CFFA620FFF789FFA820FFF786FF06
:1032C0003F20FFF783FFA420FFF780FFD320FFF705
:1032D0007DFF0020FFF77AFFD520FFF777FFF02072
:1032E000FFF774FFD920FFF771FF2220FFF76EFF71
:1032F000DA20FFF76BFF1220FFF768FFDB20FFF7F4
:1033000065FF2020FFF762FF8D20FFF75FFF14208D
:10331000FFF75CFFAF20FFF759FF0020FFF785FFA5
:1033200000210846FFF76DFF10BD10B50020FFF724
:103330007CFF10BD10B58D20FFF748FF1420FFF76C
:1033400045FFAF20FFF742FF10BD00000000024024
:1033500000080240A002404200004142A402414253
:103360000000404210B58D20FFF730FF1020FFF71E
:103370002DFFAE20FFF72AFF10BD2DE9F0470646CE
:10338000894617469A464FF0000800240025BAF1F6
:10339000010F03D0BAF1020F5ED125E020E0785D85
:1033A000203800F0FF087E2E04DD002609F1010020
:1033B00000F0FF0949463046FFF723FF002409E0EB
:1033C00008EB4801FE4A02EB4101085DFFF7E8FE09
:1033D000601CC4B2062CF3DBB01DC6B2681CC5B2BB
:1033E000785D0028DBD137E032E0785D203800F0EE
:1033F000FF08782E04DD002609F1010000F0FF0926
:1034000049463046FFF7FDFE002407E004EB0811B3
:10341000EC4A505CFFF7C4FE601CC4B2082CF5DB1C
:1034200009F10100C1B23046FFF7EBFE002408E0CD
:1034300004EB08110831E34A505CFFF7B1FE601C51
:10344000C4B2082CF4DB06F10800C6B2681CC5B291
:10345000785D0028C9D100BF00BFBDE8F0872DE925
:10346000F04180460E46174600247D013146404615
:10347000FFF7C7FE00BF06E0D349485DFFF790FEA7
:103480006D1C601CC4B2102CF6DB701CC1B240462F
:10349000FFF7B7FE002406E0CB49485DFFF780FE4A
:1034A0006D1C601CC4B2102CF6DBBDE8F0812DE968
:1034B000F05F06460F4690461C46DDF828A04FF008
:1034C000000BE11704EB5171C910A4EBC10131B934
:1034D0002046E11704EB5171C1F3C70506E0204611
:1034E000E11704EB5171C910491CCDB23D4614E0FF
:1034F00029463046FFF785FEB1460AE059460BF1F2
:10350000010B1AF80100FFF74BFE09F1010000F072
:10351000FF09C145F2DB681CC5B2A542E8DBBDE886
:10352000F09FF8B505460E461446A8A00068009026
:10353000642094FBF0F03030C0B28DF800000A2017
:1035400094FBF0F00A2190FBF1F201FB1200303005
:10355000C0B28DF801000A2094FBF0F100FB11408D
:103560003030C0B28DF8020001236A463146284649
:10357000FFF703FFF8BDF8B505460E46144694A0C4
:10358000006800900A2094FBF0F00A2190FBF1F211
:1035900001FB12003030C0B28DF800000A2094FB0D
:1035A000F0F100FB11403030C0B28DF80100012372
:1035B0006A4631462846FFF7E0FEF8BD7CB5054671
:1035C0000E46144683A103C9CDE9000142F21070F2
:1035D00094FBF0F03030C0B28DF800004FF47A70F8
:1035E00094FBF0F00A2190FBF1F201FB1200303065
:1035F000C0B28DF80100642094FBF0F090FBF1F272
:1036000001FB12003030C0B28DF802000A2094FB9A
:10361000F0F090FBF1F201FB12003030C0B28DF8F7
:1036200003000A2094FBF0F100FB11403030C0B2DF
:103630008DF8040001236A4631462846FFF79DFEB7
:103640007CBDFEB505460E46144664A207CA8DE849
:1036500007006548B4FBF0F03030C0B28DF80000D0
:103660006248B4FBF0F00A21B0FBF1F201FB12005A
:1036700030308DF801005E48B4FBF0F0B0FBF1F2A1
:1036800001FB120030308DF802005A48B4FBF0F014
:10369000B0FBF1F201FB120030308DF80300564808
:1036A000B4FBF0F0B0FBF1F201FB120030308DF80A
:1036B000040042F21070B4FBF0F0B0FBF1F201FB39
:1036C000120030308DF805004FF47A70B4FBF0F042
:1036D000B0FBF1F201FB120030308DF806006420DF
:1036E000B4FBF0F0B0FBF1F201FB120030308DF8CA
:1036F00007000A20B4FBF0F0B0FBF1F201FB12006E
:1037000030308DF808000A20B4FBF0F100FB1140C6
:1037100030308DF8090001236A4631462846FFF70C
:103720002CFEFEBD70B52DED028B84B005460E4615
:10373000B0EE408A00200190029003909FED2F0A86
:1037400028EE000ABDEEC00A10EE104A20208DF8C7
:103750000400294894FBF0F00A2190FBF1F201FBF0
:1037600012003030C0B28DF8050042F2107094FBA8
:10377000F0F090FBF1F201FB12003030C0B28DF896
:1037800006004FF47A7094FBF0F090FBF1F201FB2D
:1037900012003030C0B28DF80700642094FBF0F0C6
:1037A00090FBF1F201FB12003030C0B28DF808003E
:1037B0002E208DF809000A2094FBF0F020E0000094
:1037C00014E200083CE400083000002030303000F3
:1037D00030300000303030303000000030303030D9
:1037E000303030303030000000CA9A3B00E1F5053F
:1037F0008096980040420F00A08601000000C84259
:1038000090FBF1F201FB12003030C0B28DF80A00DB
:103810000A2094FBF0F100FB11403030C0B28DF86B
:103820000B00012301AA31462846FFF7A6FD04B08C
:10383000BDEC028B70BD000010B504466FF00400B3
:1038400000F092F9E11704EB5171C1F3C701394A55
:1038500011701046007800EB4001C1EBC0104FF62C
:10386000FF7101EAC0003449088010BD0146314AA9
:1038700012784A434FF0E0235A6100229A611A46B7
:10388000126942F001021A6100BF4FF0E022106994
:1038900000F001021AB100F48032002AF5D04FF096
:1038A000E022126922F001024FF0E0231A610022A7
:1038B0009A6170470146204A12884A434FF0E0233C
:1038C0005A6100229A611A46126942F001021A6195
:1038D00000BF4FF0E022106900F001021AB100F4BD
:1038E0008032002AF5D04FF0E022126922F0010266
:1038F0004FF0E0231A6100229A61704770B50446C8
:103900004FF4077094FBF0F0C6B24FF4077094FBCD
:10391000F0F100FB114085B205E04FF40770FFF7AE
:10392000C9FF701EC6B2002EF7D115B12846FFF7A9
:10393000C1FF70BDB2000020B400002000BF70477E
:1039400000BF4C4A128802F04002002AF9D0C2B2ED
:10395000484B9A80704710B588B00446012108464C
:1039600000F018FE0121102000F06EFE0722092150
:10397000414800F0FCFB07220A213F4800F0F7FB1A
:103980004FF4C060069002208DF81C008DF81D00D9
:1039900000208DF81E0001208DF81F0006A9364872
:1039A00000F05AFB02940020ADF80C00ADF80E00B8
:1039B000ADF81000ADF814000C20ADF8120002A90B
:1039C0002C4801F090F801212A4801F014F9012255
:1039D00040F22551274801F0C4F925208DF8040054
:1039E00003208DF805008DF8060001208DF80700F2
:1039F00001A800F06CF808B010BD10B540F22551D8
:103A00001C4801F0E9F910B31A4801F023F9C4B2D7
:103A10001A48008800F40040C8B91848008800F42B
:103A2000804060B10A2C03D000201449088020E0B7
:103A30001248008840F400401049088019E00D2C1D
:103A400006D10E48008840F480400C49088010E000
:103A50000A480088C0F30D0009490C540748008843
:103A6000401C0649088008460088C72801DD002060
:103A7000088010BD0010014000000240BC00002082
:103A8000A80A00200948804709480047FEE7FEE7EA
:103A9000FEE7FEE7FEE7FEE7FEE7FEE7FEE7FEE7FE
:103AA00004480549054A064B704700001106000806
:103AB00089010008D8BB0120D8C10120D8BD012050
:103AC000D8BD012032490143324A1160704770B5B8
:103AD000002100230F22C4781CB32E4C246804F468
:103AE000E064C4F5E064C4F30721C1F10404E3B267
:103AF0000A4144789C40E1B28478144021430C0789
:103B0000210E254C05786155047804F01F05012429
:103B1000AC4005786D11AD0005F1E025C5F8004118
:103B200009E0047804F01F050124AC401B4D067821
:103B3000761145F8264070BD194A0A400243154BDC
:103B40001B1F1A60704739B1124A121D12680243D6
:103B5000104B1B1D1A6006E00E4A121D12688243AC
:103B60000C4B1B1D1A607047042808D14FF0E02150
:103B7000096941F004014FF0E022116107E04FF0C4
:103B8000E021096921F004014FF0E0221161704742
:103B90000000FA050CED00E000E400E080E100E048
:103BA00080FFFF1F016821F0010101600021016019
:103BB00041608160C160016121214161DB4988422E
:103BC00004D13D21D94A103A91608CE0D74918318F
:103BD000884205D14FF47461D44A103A916082E072
:103BE000D2493031884205D14FF47411CF4A103A8E
:103BF000916078E0CD494831884205D14FF0746139
:103C0000CA4A103A91606EE0C8496031884204D1D6
:103C1000C749C64A103AD16065E0C4497831884244
:103C200004D1C449C14A103AD1605CE0BF49903127
:103C3000884204D1C049BD4A103AD16053E0BB4923
:103C4000A831884205D14FF03D51B84A103AD160B1
:103C500049E0BA49884204D13D21B84A083A116086
:103C600041E0B6491831884205D14FF47461B34A36
:103C7000083A116037E0B1493031884205D14FF43C
:103C80007411AE4A083A11602DE0AC4948318842BF
:103C900005D14FF07461A94A083A116023E0A749A1
:103CA0006031884204D1A249A44A121F11601AE06F
:103CB000A2497831884204D19E49A04A121F11605E
:103CC00011E09E499031884204D19B499B4A121FC2
:103CD000116008E09949A831884204D14FF03D5164
:103CE000964A121F1160704710B500220268944B6B
:103CF0001A40CC680B6823434C6923438C692343E7
:103D0000CC6923430C6A23434C6A23438C6A2343C4
:103D10004C6B23438C6B23431A430260426922F0AD
:103D20000702D1E90B3423431A4342610B69436014
:103D30004B6883608B68C36010BD002101604160E7
:103D40008160C160016141618161C1610162416263
:103D50008162C162016341638163704721B102687E
:103D600042F00102026003E0026822F001020260F8
:103D7000704721B1026842F40042026003E0026829
:103D800022F400420260704721B1026842F0200232
:103D9000026003E0026822F0200202607047416086
:103DA00070470146486880B2704722B1036843F407
:103DB0000023036003E0036823F400230360016130
:103DC000704721B1026842F48022026003E0026879
:103DD00022F48022026070470AB1016100E0C160F4
:103DE0007047014600200A6802F400220AB101204F
:103DF00000E000207047014600200A6802F001023E
:103E00000AB1012000E000207047014600204A6905
:103E100002F03800704730B503460A4600200024FF
:103E2000464DAB4202D24149103901E043491039B5
:103E300002F000550DB14C6800E00C68414D2C407B
:103E400004EA02050DB1012000E0002030BD024669
:103E50003A4B9A4202D23548103801E037481038C0
:103E600001F000531BB1374B0B40C36002E0354BF0
:103E70000B408360704710B501F080034BB122B155
:103E8000436943F08003436103E0436923F0800307
:103E9000436180290BD02AB1036801F01E0423433B
:103EA000036004E0036801F01E04A343036010BD37
:103EB00070B50246002000240025204EB24202D2F6
:103EC0001A4B103B01E01D4B103B1F4E0E4036B10C
:103ED0001E2606EAD124166806EA040502E05669A1
:103EE00006F0800501F000560EB15C6800E01C6829
:103EF000144E344004EA010616B10DB1012000E071
:103F0000002070BD02460D4B9A4202D2074810387D
:103F100001E00A48103801F000531BB1094B0B4077
:103F2000C36002E0074B0B408360704710600240A3
:103F30003D000020400F002000003D2010640240A2
:103F40003F801CF07D0F7D0F3C0F3C0F10B50446E9
:103F50009848844208D10121084600F086FB0021E0
:103F6000012000F082FB76E09348844208D10121D1
:103F7000022000F07AFB0021022000F076FB6AE0CC
:103F80008E48844208D10121042000F06EFB0021FC
:103F9000042000F06AFB5EE08948844208D10121D8
:103FA000082000F062FB0021082000F05EFB52E0D8
:103FB0008448844208D10121102000F056FB0021E2
:103FC000102000F052FB46E07F48844208D10121D6
:103FD000202000F04AFB0021202000F046FB3AE0C0
:103FE0007A48844208D10121402000F03EFB0021A4
:103FF000402000F03AFB2EE07548844208D10121B0
:10400000802000F032FB0021802000F02EFB22E017
:104010007048844208D10121801500F026FB002160
:10402000A01500F022FB16E06B48844208D1012164
:10403000401500F01AFB0021601500F016FB0AE0A5
:104040006648844207D10121001500F00EFB0021D3
:10405000201500F00AFB10BDF0B50A460021002330
:10406000002400BF3DE0012505FA01F3156805EACB
:1040700003049C4234D105684F000326BE40B5437B
:10408000056015794E00B540066835430560157921
:10409000012D02D01579022D16D185684F00032617
:1040A000BE40B543856055794E00B54086683543BE
:1040B0008560456801268E40B54345604568967920
:1040C0008E40B6B235434560C5684F000326BE40FA
:1040D000B543C560D5794E00B540C6683543C56067
:1040E000491C1029BFD3F0BD4FF6FF7101600021BC
:1040F000017141718171C171704708B54FF480320F
:104100000092009A0A430092009AC261C161009A2B
:10411000C261C2690092C269009208BD02460020D5
:1041200013690B400BB1012000E0002070470146ED
:10413000086980B270470246002053690B400BB1FA
:10414000012000E0002070470146486980B27047B6
:1041500001837047418370470AB1018300E04183C6
:1041600070474161704742694A4042617047F0B50B
:10417000002300244D07ED0E02FA05F3CE1000F1E6
:10418000200555F826504E07F70E0F26BE40B543C2
:10419000CF1000F1200646F82750CE1000F1200580
:1041A00055F8265045EA0304CE1000F1200545F8E5
:1041B0002640F0BD0000024000040240000802401A
:1041C000000C02400010024000140240001802409F
:1041D000001C02400020024000240240002802404F
:1041E000F948006840F00100F74908600020F649EE
:1041F00008310860F4480068F4490840F249086052
:10420000F348091D0860F348EF4984310860F0481D
:104210001038091D0860EC48006820F48020EA4945
:1042200008600020E8490C310860E7498C310860DB
:1042300070470021E44A921C1170114608707047C3
:1042400010B501460022002300204A11012A02D1A4
:10425000DD4C236808E0022A03D1DB4C703423686C
:1042600002E0D94C7434236801F01F020124944009
:104270001C400CB1012000E0002010BD38B500202A
:1042800000900024002500BF3120FFF7D9FF05462C
:104290000098401C00900098B0F5A04F01D0002D70
:1042A000F2D03120FFF7CCFF08B1012400E0002458
:1042B000204638BD01460020C34A106820F0F800AF
:1042C00040EAC10010607047C34908607047002190
:1042D000BD4A703211701170012802D004280AD131
:1042E00004E00121B84A7032117005E00521B64A98
:1042F0007032117000E000BF00BF7047B74908601E
:10430000704770B5049C41EA82150126C6EB53063E
:1043100045EA0645054345EA0465AB4E361D356062
:1043200070BDAD4908667047820142EA0172A64B32
:1043300084331A607047A8498866704710B58301B6
:1043400043EA016343EA02739F4C8834236010BD43
:10435000A14908677047A049C86470470246002019
:10436000994B0833186820F0EC6042EA01031843C7
:10437000954B08331860704702460020924B083373
:10438000186820F0784042EA010318438E4B083346
:1043900018607047014600208B4A0832106820F0F0
:1043A000030008431060704787480830006800F039
:1043B0000C00704701460020834A0832106820F044
:1043C000F000084310607047014600207E4A083222
:1043D000106820F4E0500843106070470146002048
:1043E000794A0832106820F4604040EAC100106049
:1043F0007047F0B500210022002402250026022388
:10440000714F08373F6807F00C0121B1042905D02E
:10441000082937D105E0724F076036E0714F076019
:1044200033E0694F3F1D3F68C7F38056664F3F1D1D
:104430003F6807F03F036EB16A4FB7FBF3F7DFF851
:1044400088C10CF1040CDCF800C0CCF3881C07FB1D
:104450000CF40CE0624FB7FBF3F7DFF86CC10CF122
:10446000040CDCF800C0CCF3881C07FB0CF4564F9E
:104470003F1D3F68C7F301477F1C7D00B4FBF5F784
:10448000076002E0564F076000BF00BF4E4F08377D
:104490003F6807F0F0010909534F7A5C0768D7407D
:1044A0004760494F08373F6807F4E051890A4E4F8B
:1044B0007A5C4768D7408760434F08373F6807F406
:1044C0006041490B484F7A5C4768D740C760F0BDF0
:1044D000002100F44072B2F5407F0AD13A4A083216
:1044E000116821F4F811414A02401143364A08325A
:1044F0001160354A70321268C0F30B031A43324B15
:1045000070331A6070473549443908607047334941
:1045100040390860704736490860704701460020FE
:10452000294A8C32106820F01F004A1E1043264A88
:104530008C321060704701460020234A8C3210688C
:1045400020F4F8504A1E40EA02201F4A8C321060C4
:104550007047014600201C4A8C32106820F440103D
:1045600008431060704701460020174A8C321068DB
:1045700020F4400008431060704701460020124AB2
:104580008C32106820F4403008431060704719499D
:104590000860704739B10C4A3032126802430A4B46
:1045A00030331A6006E0084A303212688243064B04
:1045B00030331A607047F9B1034A3432126802434B
:1045C000014B34331A601CE000380240FFFFF6EA6A
:1045D000103000240030002000004742800E474287
:1045E0000024F40000127A00BE000020FFFCFF0F40
:1045F0005C014742E01147428F4A126882438E4B6A
:104600001A60704739B18C4A121D126802438A4BF6
:104610001B1D1A6006E0884A121D12688243864BF1
:104620001B1D1A60704739B1834A0C32126802436D
:10463000814B0C331A6006E07F4A0C3212688243C9
:104640007D4B0C331A60704739B17B4A10321268C7
:104650000243794B10331A6006E0774A1032126831
:104660008243754B10331A60704739B1724A243A4D
:1046700012680243704B243B1A6006E06E4A243AEB
:10468000126882436C4B243B1A60704739B16A4A06
:10469000203A12680243684B203B1A6006E0664AE3
:1046A000203A12688243644B203B1A60704739B14C
:1046B000614A1C3A126802435F4B1C3B1A6006E0D9
:1046C0005D4A1C3A126882435B4B1C3B1A60704780
:1046D00039B1594A143A12680243574B143B1A60D5
:1046E00006E0554A143A12688243534B143B1A6051
:1046F000704739B1504A103A126802434E4B103B92
:104700001A6006E04C4A103A126882434A4B103B4A
:104710001A60704739B1484A1C3212680243464B4E
:104720001C331A6006E0444A1C3212688243424B32
:104730001C331A60704739B13F4A20321268024375
:104740003D4B20331A6006E03B4A20321268824318
:10475000394B20331A60704739B1374A2432126816
:104760000243354B24331A6006E0334A2432126880
:104770008243314B24331A60704739B12E4A2C32B0
:10478000126802432C4B2C331A6006E02A4A2C3262
:1047900012688243284B2C331A60704739B1264A7D
:1047A000303212680243244B30331A6006E0224A4A
:1047B000303212688243204B30331A607047012830
:1047C00008D11D493C31096841F008011A4A3C32C0
:1047D000116007E018493C31096821F00801164AC8
:1047E0003C321160704739B1134A273A12780243BC
:1047F000114B273B1A7006E00F4A273A1278824382
:104800000D4B273B1A7070470B484030006840F052
:104810008070094940310860704701460020064A0F
:10482000283A12680A400AB1012000E000207047CF
:1048300001492639087070473438024010B501210B
:10484000C802FFF756FF00214FF40060FFF751FF49
:1048500010BD00216C4A116847F6FF629143027D4A
:1048600083681A4343681A43C3681A4303681A43A8
:1048700003691A431143644A1160704700210175AE
:10488000016041608160C160016170475F490860FB
:1048900070475D49091F086070475B48001F00684A
:1048A00000F0030070470021574B1B1D02681A607F
:1048B0001A1D11686FF30A01D0E901231A43C36876
:1048C0001A4303691A4311434F4A08321160704773
:1048D0000021016041608160C160016170474A4808
:1048E0000C300068C0B2704708B501460020009047
:1048F00045481030084400900098006808BD002129
:10490000414B203302681A601B1D42681A601A1D51
:10491000116821F0F701D0E902231A4303691A4311
:1049200043691A431143384A2832116070474FF0E7
:10493000FF310160002141608160C160016141611E
:10494000704731482C30006870472F487C30006831
:1049500070472D497C31086070472B48443000680F
:1049600070472B49086070472949091D0860704746
:10497000274908310860704725490C3108607047A5
:104980002449086070472349091D086070470121C8
:104990008143204A0832116070471E490C3108607B
:1049A00070471B4914390860704739B1164A3832CC
:1049B00012680243144B38331A6006E0124A383248
:1049C00012688243104B38331A607047014600204A
:1049D0000D4A303212680A400AB1012000E000207E
:1049E0007047094934310860704701460020064A83
:1049F000303212680A400AB1012000E000207047FE
:104A00000149343108607047042C0140A0802542E0
:104A1000A0852542AC81254210B50446FA4884425F
:104A200008D101211020FFF764FE00211020FFF7BC
:104A300060FE57E0F548844209D101214804FFF7A0
:104A400047FE00214FF40030FFF742FE4AE0F048F5
:104A5000844209D101218804FFF73AFE00214FF476
:104A60008020FFF735FE3DE0EA48844209D101216C
:104A7000C804FFF72DFE00214FF40020FFF728FEA9
:104A800030E0E548844209D101210805FFF720FE06
:104A900000214FF48010FFF71BFE23E0DF48844223
:104AA00008D101212020FFF724FE00212020FFF75C
:104AB00020FE17E0DA48844209D101218807FFF778
:104AC00007FE00214FF08040FFF702FE0AE0D548C4
:104AD000844207D101214005FFF7FAFD002160055E
:104AE000FFF7F6FD10BD2DE9FF4705460E460024F1
:104AF000A14600BFA046B08900B100BF2C8A24F4B3
:104B00004054F08804432C82AC8941F20C60844309
:104B1000B08831890843718908430443AC81AC8A69
:104B200024F44074B0890443AC826846FFF761FC0A
:104B3000B548854202D0B948854202D1DDF80C90D3
:104B400001E0DDF80890A88900F4004040B109EBCD
:104B5000C90000EB091031684900B0FBF1F707E02C
:104B600009EBC90000EB091031688900B0FBF1F7CF
:104B70006420B7FBF0F004012009642101FB1078E8
:104B8000A88900F4004040B1322000EBC800B0FB1F
:104B9000F1F000F00700044308E0322000EB0810B9
:104BA0006421B0FBF1F000F00F0004432C81BDE85C
:104BB000FF874FF41651016000218180C18001817F
:104BC0000C21418100218181704710B502460020EF
:104BD000108A20F470600B884C8823438C88234310
:104BE000CC8823431843108210BD002101804180EE
:104BF0008180C180704721B1828942F40052828154
:104C000004E082894DF6FF731A4082817047028B5F
:104C100002F47F420283028B0A430283704721B170
:104C2000828942F40042828103E08289C2F30E024B
:104C30008281704721B1828A42F40062828204E05C
:104C4000828A4FF2FF731A4082827047C1F30802D2
:104C50008280704701468888C0F308007047028A46
:104C60004FF6F0731A400282028A0A4302827047AA
:104C700021B1828942F00202828104E082894FF6EA
:104C8000FD731A408281704782894FF2FF731A4088
:104C9000828182890A4382817047028A4FF6DF73DC
:104CA0001A400282028A0A430282704721B1028AB4
:104CB00042F48042028204E0028A4BF6FF731A40FB
:104CC00002827047818941F001018181704721B1E1
:104CD000828A42F00802828204E0828A4FF6F773E9
:104CE0001A4082827047028BD2B20283028B42EA60
:104CF00001220283704721B1828A42F0200282821F
:104D000004E0828A4FF6DF731A408282704721B135
:104D1000828A42F01002828204E0828A4FF6EF73A8
:104D20001A4082827047828A4FF6FB731A40828251
:104D3000828A0A438282704721B1828A42F002024B
:104D4000828204E0828A4FF6FD731A4082827047A5
:104D50001AB1838A0B43838202E0838A8B43838266
:104D60007047F0B50346002400260025002040F6D9
:104D70006A17B94200D100BF1846C1F3421401F0CE
:104D80001F06012707FA06F5012C01D10C3004E0BB
:104D9000022C01D1103000E014301AB107682F4303
:104DA000076002E00768AF430760F0BD02460020DD
:104DB000B1F5007F00D100BF13880B400BB101207B
:104DC00000E00020704701F40072B2F5007F00D1CE
:104DD00000BFCA430280704770B50246002400231A
:104DE0000025002040F66A16B14200D100BFC1F391
:104DF000421501F01F03012606FA03F3012D13D11A
:104E00009689334017E00000001001400044004044
:104E100000480040004C0040005000400014014099
:104E200000780040007C0040022D02D1168A3340F9
:104E300001E0968A33400C12012606FA04F4168823
:104E4000344013B10CB1012000E0002070BD10B55A
:104E50000022002340F66A14A14200D100BF0A12CA
:104E600001249440A3B2DC43048010BD10B5044675
:104E7000FB48844208D101218014FFF73AFC00214D
:104E8000A014FFF736FC3CE0F648844208D101212B
:104E90000014FFF71DFC00212014FFF719FC30E07F
:104EA000F148844208D10121C013FFF711FC002111
:104EB000E013FFF70DFC24E0EC48844208D1012107
:104EC0004014FFF716FC00216014FFF712FC18E0F5
:104ED000E748844209D101210805FFF70AFC0021B7
:104EE0004FF48010FFF705FC0BE0E248844208D144
:104EF00001214805FFF7FDFB00214FF40010FFF7EB
:104F0000F8FB10BD10B50022028802F441520B8854
:104F10004C8823438C882343CC8823430C89234328
:104F20004C8923438C892343CC8923431A43028031
:104F3000838B4FF2FF74234083830B8A038210BD5F
:104F40002DE9F04F0025022300244FF00109002233
:104F50000026002794469046B0F81CA04FF2400B64
:104F60000AEA0B0AA0F81CA04FF0020AA0F820A041
:104F7000858BD1F808A0BAF1020F01D100BF82E001
:104F8000B1F804A0BAF1000F02D14FF0010901E01D
:104F90004FF00209DFF8E0A2DAF800A00AF4000AF4
:104FA000BAF1000F09D0DFF8D0A2DAF800A02AF495
:104FB000000ADFF8C4B2CBF800A0DFF8BCA20AF107
:104FC0007C0ADAF800A0CAF3881CDFF8ACA20AF168
:104FD0007C0ADAF800A0CAF30278DFF89CA2AAF1F2
:104FE000040ADAF800A00AF03F07DFF88CA2AAF161
:104FF000040ADAF800A00AF4800ABAF5800F08D192
:10500000DFF878A2BAFBF7FA0AFB0CFABAFBF8F65B
:1050100007E0DFF86CA2BAFBF7FA0AFB0CFABAFB5E
:10502000F8F6B1F806A0BAF5007F0ED14FEA162ABD
:105030000AEB8A0A4FEA4A0AD1F808B0BAFBFBFA2F
:105040000AF1050A1FFA8AF20FE04FEA491AB6FB85
:10505000FAFA0AEB8A0A4FEA4A0AD1F808B0BAFB10
:10506000FBFA0AF1050A1FFA8AF24FF00A0AB2FBAC
:10507000FAF202F00104A2EB040ACAF34F034FF65E
:10508000FF7A0AEA0424022B01DBFF2B01DD022355
:105090000024B1F806A04AEA040A4AEA030AA0F882
:1050A00020A0B1F804A0B1F80CB04AEA0B0AB1F89C
:1050B00002B04AEA0B0AB1F800B04AEA0B0A4AF415
:1050C000006A4AEA05058583BDE8F08F002101806A
:1050D00041808180C180018141818181C18107211D
:1050E000018270470021018041808180C1800221BE
:1050F000816000218181704721B1028842F0400225
:10510000028004E002884FF6BF731A4002807047A5
:1051100021B1828B42F48062828304E0828B4FF65D
:10512000FF331A408283704702884FF2FF731A40A0
:10513000028002880A4302807047B1F5804F04D193
:10514000028842F48042028004E002884BF6FF733A
:105150001A40028070474FF6FF62914204D00288E5
:1051600042F48072028004E002884FF6FF631A4026
:105170000280704721B1828842F00402828004E0FC
:1051800082884FF6FB731A408280704721B1828873
:1051900042F01002828004E082884FF6EF731A40DA
:1051A0008280704730B500220023848B4FF2400587
:1051B0002C40848302240484828B0C88B4F5007F05
:1051C00001D00C8814B94FF4807308E00C88B4F552
:1051D000407F03D00C88B4F5807F00D100238C88F9
:1051E0008D892C434D882C431C4344F40064224396
:1051F000828330BD0146888970478181704721B123
:10520000028842F40052028004E002884DF6FF73E7
:105210001A4002807047018841F480510180704734
:1052200002460020012901D0108B00E0908A7047CF
:105230000146088A70471AB183880B43838002E0D5
:1052400083888B438380704730B5002400230C1182
:105250000125A540ABB2AAB185881D43858014E025
:105260000030014000380040003C00400034014064
:1052700000500140005401400838024000127A00FA
:105280000024F40085889D43858030BD02460020BF
:1052900013890B400BB1012000E000207047CA4386
:1052A00002817047F0B5024600200024002300254B
:1052B00001F00F070126BE40B4B20B1101269E403B
:1052C000B3B2968806EA03051689264016B10DB1D9
:1052D000012000E00020F0BD10B5002201F00F0415
:1052E0000123A3409AB2D343038110BD10B50446F5
:1052F000FE48844208D101210846FFF7FAF900214F
:105300000120FFF7F6F99DE0B4F1804F08D10121AB
:105310000846FFF7DDF900210120FFF7D9F991E0F8
:10532000F348844208D101210220FFF7D1F900217E
:105330000220FFF7CDF985E0EE48844208D1012133
:105340000420FFF7C5F900210420FFF7C1F979E037
:10535000E948844208D101210820FFF7B9F900216A
:105360000820FFF7B5F96DE0E448844208D1012137
:105370001020FFF7ADF900211020FFF7A9F961E037
:10538000DF48844208D101212020FFF7A1F9002144
:105390002020FFF79DF955E0DA48844208D1012129
:1053A0000220FFF7A6F900210220FFF7A2F949E049
:1053B000D548844209D101210804FFF79AF9002158
:1053C0004FF48030FFF795F93CE0D048844209D192
:1053D00001214804FFF78DF900214FF40030FFF759
:1053E00088F92FE0CA48844209D101218804FFF7D7
:1053F00080F900214FF48020FFF77BF922E0C548B7
:10540000844208D101214020FFF762F900214020A9
:10541000FFF75EF916E0C048844208D101218020E0
:10542000FFF756F900218020FFF752F90AE0BB4848
:10543000844207D101218015FFF74AF90021A01508
:10544000FFF746F910BD00220288A84B98420ED003
:10545000AC4B98420BD0B0F1804F08D0A44B98428F
:1054600005D0A44B984202D0A34B984204D14FF6EA
:105470008F731A404B881A43A04B984207D0A04B19
:10548000984204D04FF6FF431A400B891A4302801A
:105490004B68C3620B880385944B984202D0994BAA
:1054A000984201D18B7A03860123838270474FF0A3
:1054B000FF3141600021018001814180817270478C
:1054C0000185828270470A46002101884FF68F735A
:1054D000194011430180704741627047C1627047B3
:1054E0000146486A70470146088D704721B102881D
:1054F00042F00202028004E002884FF6FD731A4077
:105500000280704721B1028842F00402028004E068
:1055100002884FF6FB731A400280704721B102885F
:1055200042F08002028004E002884FF67F731A4046
:105530000280704702884FF6F7731A400280028893
:105540000A430280704702884FF6FF431A400280E8
:1055500002880A430280704721B1028842F00102AA
:10556000028004E002884FF6FE731A400280704702
:1055700070B5002400220023058C4FF6FE763540DE
:105580000584028C8388048B4FF68F752C40B51EE2
:105590002C400D882C43751E2A408D892A434D8846
:1055A0002A43524DA84202D0564DA84213D14FF67D
:1055B000F7752A40CD892A434FF6FB752A408D881E
:1055C0002A434FF6FF652B404FF6FF552B400D8ABF
:1055D0002B434D8A2B43838004838D68456302846B
:1055E00070BD70B5002400220023058C4FF6EF76C5
:1055F00035400584028C8388048B48F6FF752C4067
:105600004FF6FF452C400D884FF6FF7606EA05253C
:105610002C434FF6DF752A408D8906EA05152A438B
:105620004D8806EA05152A43304DA84202D0354D73
:10563000A8421DD14FF67F752A40CD894FF6FF76DF
:1056400006EA05152A434FF6BF752A408D8806EAFB
:1056500005152A434FF6FF352B404FF2FF752B40BF
:105660000D8A06EA85052B434D8A06EA85052B43FC
:10567000838004838D688563028470BD70B50024C7
:1056800000220023058C4FF6FF6635400584028C0E
:105690008388848B4FF68F752C404FF6FC752C4019
:1056A0000D882C434FF6FF552A408D894FF6FF7623
:1056B00006EA05252A434D8806EA05252A430B4DAF
:1056C000A84202D00F4DA84238D14FF2FF752A40B0
:1056D000CD894FF6FF7606EA05252A434FF6FF35BA
:1056E0002A408D8806EA05252A4319E0000001407A
:1056F0000004004000080040000C00400010004082
:1057000000140040000401400040014000440140FA
:105710000048014000180040001C004000200040EC
:105720004EF6FF752B404DF6FF752B400D8A06EAAD
:1057300005152B434D8A06EA05152B438380848388
:105740008D68C563028470BD70B5002200230024FB
:10575000058C4EF6FF7635400584038C8488828B59
:1057600048F6FF752A404FF6FF452A400D884FF650
:10577000FF7606EA05252A434DF6FF752B408D89F5
:1057800006EA05352B434D8806EA05352B43FE4DC9
:10579000A84202D0FD4DA84208D14BF6FF752C401F
:1057A0000D8A4FF6FF7606EA85152C4384808283A6
:1057B0008D680564038470BD002101804180818073
:1057C00081608181C18101824182704770B5034649
:1057D000002000241846183001258D40ACB21D8CE5
:1057E000A5431D8409B108290AD100EB61000568B1
:1057F0004FF68F76354005600568154305600FE06C
:105800000D1FC5F34E052844056848F6FF76354060
:10581000056005684FF6FF7606EA02263543056007
:1058200070BD4163704781637047C1637047016415
:1058300070470A460021018B4FF68F7319401143C0
:10584000018370470A460021018B48F6FF73194017
:105850004FF6FF7303EA02231943018370470A4698
:105860000021818B4FF68F7319401143818370475C
:105870000A460021818B48F6FF7319404FF6FF73EB
:1058800003EA02231943818370470A460021018BF2
:105890004FF6F77319401143018370470A46002100
:1058A000018B4FF2FF7319404FF6FF7303EA022397
:1058B0001943018370470A460021818B4FF6F77325
:1058C00019401143818370470A460021818B4FF2B2
:1058D000FF7319404FF6FF7303EA022319438183D4
:1058E00070470A460021018B4FF6FB7319401143A4
:1058F000018370470A460021018B4FF6FF331940A0
:105900004FF6FF7303EA02231943018370470A46E7
:105910000021818B4FF6FB7319401143818370473F
:105920000A460021818B4FF6FF3319404FF6FF7373
:1059300003EA02231943818370470A460021018B41
:105940004FF67F7319401143018370470A460021C7
:10595000018BC1F30E014FF6FF7303EA02231943D3
:10596000018370470A460021818B4FF67F731940EF
:105970001143818370470A460021818BC1F30E01D8
:105980004FF6FF7303EA02231943818370470A46E7
:105990000021018C4FF6FD731940114301847047BB
:1059A0000A460021018C4FF6F77319401143018418
:1059B00070470A460021018C4FF6DF7319404FF6FD
:1059C000FF7303EA02131943018470470A4600215A
:1059D000018C4FF67F7319404FF6FF7303EA0213F1
:1059E0001943018470470A460021018C4FF6FF538A
:1059F00019404FF6FF7303EA0223194301847047ED
:105A00000A460021018C4FF2FF7319404FF6FF73D5
:105A100003EA02231943018470470A460021018CDE
:105A20004DF6FF7319404FF6FF7303EA0233194333
:105A30000184704730B5002301248C40A3B2048C4C
:105A40009C430484048C02FA01F5ADB22C43048417
:105A500030BD30B5002304248C40A3B2048C9C4399
:105A60000484048C02FA01F5ADB22C43048430BDE9
:105A7000828B4FF2FF331A408283828B4FF6FF7383
:105A800003EA01231A4382837047F0B50C4615469A
:105A9000002100220026078C4EF6FF7C07EA0C0747
:105AA0000784818B028C4FF6FF7707EA043640F6B5
:105AB000FF4739404FF6FF7707EA052739434FF68E
:105AC000FF7707EA0337394345F6FF773A4046F454
:105AD00080573A4381830284F0BD828B4FF6F37383
